:100000000C94900C0C94C10C0C94C10C0C94C10C6D
:100010000C94C10C0C94C10C0C94C10C0C94C10C2C
:100020000C94C10C0C94C10C0C94C10C0C94C10C1C
:100030000C94C10C0C94C10C0C94C10C0C94C10C0C
:100040000C94C10C0C94DE4D0C94C10C0C94C10C9E
:100050000C94C10C0C94C10C0C9422460C94105FAF
:100060000C94C10C0C94CB2D0C94C12D0C94C10C90
:100070000C94C10C0C94C10C0C94C10C0C94C10CCC
:100080000C94C10C0C94C10C0C94C10C0C94C10CBC
:100090000C94C10C0C94C10C0C94C10C0C94C10CAC
:1000A0000C94C10C0C94C10C0C94C10C0C94C10C9C
:1000B0000C94C10C0C94C10C0C94C10C0C94C10C8C
:1000C0000C94C10C0C94C10C0C94C10C0C94C10C7C
:1000D0000C94C10C0C94C10C0C94C10C0C94C10C6C
:1000E0000C94C10C632B682B6D2B772B812BFA2B77
:1000F0008B2B932B9B2BA52BAF2BB92BC82BD22B48
:10010000FA2BDC2BE62BF02B855F885F775F7B5F1C
:100110007F5FBF5F8C5F905F965F9A5F9E5FA45F1B
:10012000A85FAC5FBF5FB25FB65FBA5F084AD73BFC
:100130003BCE016E84BCBFFDC12F3D6C74319ABDB6
:1001400056833DDA3D00C77F11BED9E4BB4C3E91DA
:100150006BAAAABE000000803F05A84CCDB2D44EC9
:10016000B93836A9020C50B9918688083CA6AAAACB
:100170002ABE000000803F000C94D22B0C94A45F98
:100180000C948B2B0C94E62B0C94FA2B0C947F5F25
:100190000C94855F0C94932B0C94B92B0C949E5F5C
:1001A0000C94885F0C94AF2B0C94775F0C94AC5F2D
:1001B0000C94965F0C94DC2B0C94A85F0C94A52BEC
:1001C0000C94905F0C94F02B0C94C82B0C94BF5F94
:1001D0000C948C5F0C94682B0C943D640C949A5F87
:1001E0000C946D2B0C94812B0C94632B0C94BA5FA4
:1001F0000C94772B0C94B25F0C94B65F0C949B2BF1
:100200000C947B5F4E414E494E495459494E46CD60
:10021000CCCC3D0AD7233C17B7D13877CC2B3295BD
:1002200095E6241FB14F0A000020410000C842009B
:10023000401C4620BCBE4CCA1B0E5AAEC59D744322
:100240004F4D4D554E49434154494F4E004452592C
:1002500052554E004552524F525300494E464F00A0
:100260004543484F006F6B00454550524F4D206449
:10027000697361626C65640A00486F6D652025735F
:100280002573257320466972737400546F6F20665E
:1002900061722066726F6D207265666572656E634D
:1002A0006520706F696E740A0023646566696E6507
:1002B0002044454641554C545F004B6420004B6937
:1002C00020004B702000504944204175746F7475B4
:1002D0006E652066696E6973686564212050757467
:1002E00020746865206C617374204B702C204B69FE
:1002F00020616E64204B6420636F6E7374616E7452
:10030000732066726F6D2062656C6F7720696E7402
:100310006F20436F6E66696775726174696F6E2EC8
:10032000680A00504944204175746F74756E6520E9
:100330006661696C6564212074696D656F75740A06
:1003400000544845524D414C2052554E4157415959
:1003500000546865726D616C2052756E61776179C9
:100360000048656174696E67204661696C65640068
:1003700048656174696E67206661696C6564000A2E
:1003800020436C617373696320504944200A002044
:100390004B643A2000204B693A2000204B703A20F1
:1003A000002054753A2000204B753A2000206D61E2
:1003B000783A2000206D696E3A200020643A2000CF
:1003C00020626961733A2000504944204175746F7E
:1003D00074756E652073746172740A00504944200C
:1003E0004175746F74756E65206661696C65642112
:1003F0002054656D706572617475726520746F6FDD
:1004000020686967680A00504944204175746F7418
:10041000756E65206661696C6564212042616420A7
:100420006578747275646572206E756D6265720AA6
:10043000006469730043290A0061626C65642028C6
:100440006D696E2074656D702000436F6C6420656B
:100450007874727564657320617265200020643A57
:100460000020693A0020703A00496E76616C696438
:100470002065787472756465720A0020466C6F7727
:100480003A200046523A00205A0020590020204DC0
:1004900061783A200020204D696E3A2000536F6643
:1004A0007420656E6473746F70733A20003F4A2045
:1004B0006F7574206F662072616E67652028302E1C
:1004C000303120746F20302E33290A002054002050
:1004D0005200416363656C65726174696F6E3A20A6
:1004E00050002F2F20004348414D4245525F544554
:1004F0004D50455241545552450042414259535482
:10050000455050494E470041524353004D4F5449C6
:100510004F4E5F4D4F44455300544845524D414C5A
:100520005F50524F54454354494F4E004C4F4E4735
:100530005F46494C454E414D45004155544F52454B
:10054000504F52545F53445F5354415455530053DA
:1005500044434152440050524F4D50545F53555004
:10056000504F525400454D455247454E43595F50F8
:10057000415253455200434153455F4C494748540B
:100580005F4252494748544E45535300544F4747E2
:100590004C455F4C494748545300534F46545741CC
:1005A00052455F504F574552004255494C445F50A9
:1005B000455243454E54004C4556454C494E475FC5
:1005C00044415441005A5F50524F42450052554EEB
:1005D0004F5554004155544F4C4556454C005052D0
:1005E000494E545F4A4F420050524F475245535371
:1005F000004155544F5245504F52545F54454D5051
:1006000000564F4C554D45545249430045455052B4
:100610004F4D0042494E4152595F46494C455F5447
:1006200052414E534645520053455249414C5F5842
:100630004F4E5F584F4646004649524D574152452E
:100640005F4E414D453A4D61726C696E20322E30DD
:100650002E372E3220284A616E202031203230324F
:10066000312031323A34343A32362920534F555200
:1006700043455F434F44455F55524C3A687474702C
:10068000733A2F2F6769746875622E636F6D2F4DF3
:1006900061726C696E4669726D776172652F4D612A
:1006A000726C696E2050524F544F434F4C5F564509
:1006B0005253494F4E3A312E30204D414348494E16
:1006C000455F545950453A3344205072696E746501
:1006D000722045585452554445525F434F554E542D
:1006E0003A3120555549443A636564653261326652
:1006F0002D343161322D343734382D396231322D79
:100700006335356336326633363766660A004D31F7
:1007100031332053004D3131322053687574646F8A
:10072000776E006F66660044454255473A00205791
:100730003A002569792025696420256968202569A2
:100740006D20256973005072696E742074696D653F
:100750003A200047322F4733206261642070617273
:10076000616D65746572730A00FFFFFF0000000091
:10077000000000000000000060025B0254024D0215
:100780003F02000020420000204200000040000024
:100790002100240027002A002D0030003300010131
:1007A0000000040107010A012121204B494C4C2083
:1007B00063617573656420627920746F6F206D7555
:1007C000636820696E6163746976652074696D651C
:1007D000202D2063757272656E7420636F6D6D617C
:1007E0006E643A20004D343130004D313132004DCD
:1007F000313038005072696E7465722073746F7096
:100800007065642064756520746F206572726F7204
:10081000732E2046697820746865206572726F7245
:1008200020616E6420757365204D39393920746FED
:1008300020726573746172742E202854656D706522
:100840007261747572652069732072657365742EA8
:100850002053657420697420616674657220726526
:100860007374617274696E67290A004E6F20436861
:1008700065636B73756D2077697468206C696E654C
:10088000206E756D6265722C204C617374204C690A
:100890006E653A2000636865636B73756D206D69E2
:1008A000736D617463682C204C617374204C696EA5
:1008B000653A20004C696E65204E756D6265722048
:1008C0006973206E6F74204C617374204C696E657F
:1008D000204E756D6265722B312C204C6173742033
:1008E0004C696E653A20004D313130006275737984
:1008F0003A2070617573656420666F7220696E704E
:1009000075740A00627573793A2070617573656455
:1009100020666F7220757365720A00627573793A8A
:100920002070726F63657373696E670A0050726935
:100930006E7465722068616C7465642E206B696CDE
:100940006C28292063616C6C6564210A006563680A
:100950006F3A004572726F723A00204D393220585A
:100960000020496E76616C696420657874727564E4
:10097000657220004361703A00526573656E643A97
:1009800020006F70656E00545249474745524544F8
:10099000007A5F6D696E00795F6D696E00785F6DDA
:1009A000696E005265706F7274696E6720656E645F
:1009B00073746F70207374617475730A00486F6D7F
:1009C000696E67204661696C65640020746F6F20F2
:1009D0006C6F6E6720657874727573696F6E2070C6
:1009E000726576656E7465640A0020636F6C6420BE
:1009F000657874727573696F6E2070726576656E56
:100A00007465640A00DB0FC93F45BCDA3F8FB3024F
:100A100040FCF0274056946140FE4B9B4084A5D893
:100A200040E0231841346A5641E859974164DBD5C8
:100A3000416E271742B4B75542CE1A9742C8AED579
:100A400042B5885A43D40684BFA65FA7BF7443E06B
:100A5000BF10B11AC01C2C58C0E8F697C0B849D6D0
:100A6000C04E4E17C124D355C1802497C1A0B5D51F
:100A7000C1121A17C244AE55C2781797C26CACD5D2
:100A8000C267885AC320436F756E7420583A00427B
:100A9000656400453100626564002C2073797374CD
:100AA000656D2073746F7070656421204865617492
:100AB00065725F49443A2000202D20496E76616CB2
:100AC0006964206578747275646572206E756D62F4
:100AD000657220210A004572723A204D41585445F2
:100AE0004D50004D415854454D5020747269676710
:100AF00065726564004572723A204D494E54454D09
:100B000050004D494E54454D5020747269676765D9
:100B100072656400202F002042403A0020403A00D5
:100B200070012C0190012701B0012201C0011D01BB
:100B3000F00118011002130130020E0160020901D8
:100B400090020401C002FF000003FA004003F50018
:100B50008003F000D003EB002004E6007004E10005
:100B6000E004DC004005D700C005D2004006CD00FF
:100B7000D006C8008007C3003008BE00F008B900E6
:100B8000C009B400B00AAF00B00BAA00D00CA50099
:100B9000000EA000500F9B00C01096005012910054
:100BA00000148C00C0158700B0178200B0197D00BA
:100BB000D01B7800001E730040206E009022690058
:100BC000F024640040275F0090295A00E02B550074
:100BD000102E500020304B0010324600E033410010
:100BE00090353C001037370070383200A0392D00A6
:100BF000B03A2800A03B2300603C1E00103D1900C5
:100C0000903D1400103E0F00703E0A00C03E0500EB
:100C1000003F0000403FFBFF803FF6FFC03FF1FF79
:100C200020490020204D33303120500050494420CD
:100C300073657474696E67733A0020204D323036E4
:100C4000205800486F6D65206F66667365743A00C2
:100C5000204A0020204D3230352042004164766128
:100C60006E6365643A20423C6D696E5F7365676DC3
:100C7000656E745F74696D655F75733E20533C6D7E
:100C8000696E5F66656564726174653E20543C6D93
:100C9000696E5F74726176656C5F666565647261CA
:100CA00074653E204A3C6A756E635F6465763E00FB
:100CB00020204D323034205000416363656C6572F2
:100CC0006174696F6E2028756E6974732F73322991
:100CD0003A20503C7072696E745F616363656C3E6C
:100CE00020523C726574726163745F616363656C0A
:100CF0003E20543C74726176656C5F616363656C21
:100D00003E0020204D3230312058004D6178696D11
:100D1000756D20416363656C65726174696F6E20E7
:100D200028756E6974732F7332293A0020450020AC
:100D3000204D3230332058004D6178696D756D203B
:100D40006665656472617465732028756E69747375
:100D50002F73293A00537465707320706572207583
:100D60006E69743A0020440020204D323030205308
:100D7000002044697361626C65640A0046696C61B5
:100D80006D656E742073657474696E67733A0020C4
:100D9000286D6D29002020473231202020203B2063
:100DA000556E69747320696E206D6D0024F4D43023
:100DB00050C38E20C2A24017828B7011127A910DFF
:100DC000816CD90AA861E108C758660761514306DA
:100DD0001E4B5D05C145A7041A411104093D980346
:100DE000713931034036DB0265339102D43054024D
:100DF000802E1D02632CEE01752AC501B028A001CA
:100E0000102781018F2564012B244B01E02234013E
:100E1000AC211F018D200D01801FFC00841EED0000
:100E2000971DDF00B81CD200E61BC600201BBC00CB
:100E3000641AB200B219A8000A19A0006A18990031
:100E4000D117910040178B00B516840031167E0033
:100E5000B31579003A157300C7146F0058146A006F
:100E6000EE1366008813630025135E00C7125B0053
:100E70006C12570015125400C111510070114F002F
:100E800021114B00D61049008D1047004610440038
:100E900002104200C00F4000800F3E00420F3C0095
:100EA000060F3B00CB0E3800930E37005C0E35006A
:100EB000270E3400F30D3200C10D3100900D3000CB
:100EC000600D2E00320D2D00050D2C00D90C2B00CD
:100ED000AE0C2900850C29005C0C2700350C27007E
:100EE0000E0C2600E80B2400C40B2400A00B2300EA
:100EF0007D0B23005A0B2100390B2100180B200019
:100F0000F80A1F00D90A1E00BB0A1E009D0A1D0018
:100F1000800A1D00630A1C00470A1B002C0A1B00E4
:100F2000110A1A00F7091A00DD091900C40919008D
:100F3000AB091900920917007B0918006309170013
:100F40004C09160036091600200916000A0915007A
:100F5000F5081500E0081400CC081400B8081400C7
:100F6000A4081400900813007D0812006B081300F9
:100F70005808120046081200340811002308110016
:100F80001208110001081100F0071000E00710001E
:100F9000D0071000C0071000B0070F00A107100015
:100FA00091070E0083070F0074070F0065070E00FE
:100FB00057070E0049070E003B070D002E070E00D5
:100FC00020070D0013070D0006070D00F9060C00A1
:100FD000ED060D00E0060C00D4060C00C8060C005F
:100FE000BC060C00B0060C00A4060B0099060C0011
:100FF0008D060B0082060B0077060B006C060B00BB
:1010000061060A0057060B004C060A0042060A0059
:1010100038060A002E060A0024060A001A060A00EC
:101020001006090007060A00FD050900F40509007D
:10103000EB050900E2050900D9050900D005090002
:10104000C7050900BE050900B5050800AD05080083
:10105000A50509009C050800940508008C050800FA
:10106000840508007C050800740508006C0507006D
:10107000650508005D050700560508004E050700D8
:10108000470507004005080038050700310507003F
:101090002A050700230507001C05060016050700A2
:1010A0000F0507000805060002050700FB040600FF
:1010B000F5040700EE040600E8040600E204070059
:1010C000DB040600D5040600CF040600C9040600B0
:1010D000C3040600BD040600B7040600B104050001
:1010E000AC040600A6040600A00405009B0406004C
:1010F00095040500900406008A0405008504050097
:10110000800406007A0405007504050070040500DB
:101110006B04050066040500610405005C0405001D
:1011200057040500520405004D040500480405005D
:10113000430405003E0404003A040500350405009C
:10114000300404002C0405002704040023040500D7
:101150001E0404001A04040016040500110404000F
:101160000D04040009040500040404000004040044
:10117000FC030400F8030400F4030400F00304007B
:10118000EC030400E8030400E4030400E0030400AB
:10119000DC030400D8030400D4030400D0030400DB
:1011A000CC030400C8030300C503030024F404D9DE
:1011B000201BC40C5C0E9804C4095F026507710112
:1011C000F405F900FB04B30048048700C10369007B
:1011D0005803550003034500BE023A008402310063
:1011E00053022A002902250004022000E4011C0009
:1011F000C8011900AF011700980114008401130001
:10120000710110006101100051010E0043010D0039
:1012100036010B002B010B0020010B00150109000A
:101220000C01090003010800FB000800F30008009E
:10123000EB000700E4000600DE000600D800060010
:10124000D2000600CC000500C7000500C200050062
:10125000BD000400B9000400B5000400B1000400A2
:10126000AD000400A9000400A5000300A2000300D3
:101270009F0004009B0003009800030095000200FB
:1012800093000300900003008D0002008B00030018
:101290008800020086000200840003008100020032
:1012A0007F0002007D0002007B0002007900020046
:1012B0007700010076000200740002007200010055
:1012C000710002006F0002006D0001006C0002005E
:1012D0006A00010069000200670001006600010069
:1012E000650001006400020062000100610001006D
:1012F000600001005F0002005D0001005C00010071
:101300005B0001005A000100590001005800010073
:101310005700010056000100550001005400010073
:101320005300000053000100520001005100010071
:10133000500001004F0001004E0000004E0001006F
:101340004D0001004C0001004B0000004B0001006B
:101350004A00010049000100480000004800010067
:101360004700010046000000460001004500000063
:10137000450001004400010043000000430001005B
:101380004200000042000100410000004100010055
:10139000400001003F0000003F0001003E0000004F
:1013A0003E0001003D0000003D0001003C00000047
:1013B0003C0000003C0001003B0000003B0001003D
:1013C0003A0000003A000100390000003900010035
:1013D000380000003800000038000100370000002D
:1013E0003700010036000000360000003600010022
:1013F0003500000035000000350001003400000019
:10140000340000003400010033000000330000000D
:101410003300010032000000320000003200010001
:1014200031000000310000003100010030000000F8
:1014300030000000300001002F0000002F000000ED
:101440002F0000002F0001002E0000002E000000E1
:101450002E0001002D0000002D0000002D000000D6
:101460002D0001002C0000002C0000002C000000CA
:101470002C0001002B0000002B0000002B000000BE
:101480002B0001002A0000002A0000002A000000B2
:101490002A000100290000002900000029000000A6
:1014A0002900000029000100280000002800000099
:1014B000280000002800000028000100270000008C
:1014C000270000002700000027000000270001007F
:1014D0002600000026000000260000002600000074
:1014E0002600010025000000250000002500000066
:1014F0002500000025000000250001002400000058
:10150000240000002400000024000000240001004A
:10151000230000002300000023000000230000003F
:10152000230000002300000023000100220000002F
:101530002200000022000000220000002200000023
:101540002200010021000000210000002100000015
:101550002100000021000000210000002100010006
:1015600020000000200000002000000020000000FB
:1015700020000000200000002000000020000100EA
:101580001F0000001F0000001F0000001F000000DF
:101590001F0000001F0000001F0001001E000000CF
:1015A0001E0000001E0000001E00000004370000A6
:1015B0001E290000511B00005810000010090000F7
:1015C000CC04000078020000410100005761726EF7
:1015D000696E673A20486F6D696E672042756D705D
:1015E0002044697669736F72203C20310A0048619B
:1015F0007264636F6465642044656661756C742011
:1016000053657474696E6773204C6F616465640A16
:10161000003B20000202040000A0400000A04000A7
:1016200000004000004843000048430000484300D9
:10163000009643000096430000A0400000C841C34C
:101640003520436626234371D57A4500C04144B80E
:101650000B0000B80B00003C0000008813000000E5
:10166000000000300E0100C00E0A00500F1400D020
:101670000F1E0060102800E010320070113C00F0D6
:101680001146007012500000135A008013640000CD
:10169000146E00901478001015820090158C0010C4
:1016A0001696009016A0001017AA009017B400100C
:1016B00018BE009018C8001019D2009019DC001054
:1016C0001AE600801AF000001BFA00801B0401F0EB
:1016D0001B0E01701C1801F01C2201601D2C01E082
:1016E0001D3601501E4001D01E4A01401F5401B05A
:1016F0001F5E0130206801A020720110217C019042
:10170000218601002290016026F401902A5802806F
:101710002EBC0250322003E03584035039E80380A8
:101720003C4C042020506C616E6E6572427566669A
:10173000657242797465733A2000204672656520AF
:101740004D656D6F72793A2000436F6D70696C65FD
:10175000643A204A616E20203120323032310A0052
:10176000204C61737420557064617465643A203252
:101770003032302D31302D3135207C204175746868
:101780006F723A20284654472C2064656661756C58
:101790007420636F6E666967206E6F204C43442926
:1017A0000A00322E302E372E320A004D61726C69DB
:1017B0006E0020536F6674776172652052657365A1
:1017C000740A00205761746368646F672052657300
:1017D00065740A002042726F776E206F7574205214
:1017E000657365740A002045787465726E616C20BB
:1017F00052657365740A00506F77657255700A0000
:10180000656E6473746F7073206869743A20002287
:101810000A00556E6B6E6F776E20636F6D6D616E33
:10182000643A20220020453A00205A3A0020593AD2
:101830000000002200250028002B002E003100347B
:101840000002010000050108010B0105050505075F
:101850000508080808020202020A0A08080404042B
:101860000401010101010101010303030303030357
:1018700003040707070C0C0C0C0C0C0C0C020202E6
:101880000206060606060606060B0B0B0B0B0B0BD9
:101890000B01021020200808102040102040800278
:1018A00001020108040201010204081020408080A6
:1018B000402010080402018004020180402010082A
:1018C0000402010804020101020408102040800102
:1018D0000204081020408000000A0B02090C0D0EC3
:1018E00008070304010000000000000000000000E1
:1018F00000000000000000000000000000000000E8
:1019000000000012111000000000000000000000A4
:1019100000000000000000000000000000003D6426
:1019200011241FBECFEFD1E2DEBFCDBF00E00CBF60
:1019300012E0A0E0B2E0EEE5F0EE00E00BBF02C086
:1019400007900D92A635B107D9F72BE0A6E5B2E0D6
:1019500001C01D92AE3BB207E1F71CE0C0E9DCE03C
:1019600000E006C021970109802FFE010E94E86C6B
:10197000CF38D10780E00807A9F70E94A8600C942F
:101980002D700C9400002F923F924F925F926F92B5
:101990007F928F929F92AF92BF92CF92DF92EF92FF
:1019A000FF920F931F93CF93DF93CDB7DEB7C1574D
:1019B000D1090FB6F894DEBF0FBECDBF2091BC0297
:1019C000A4962FAFA49781E08093BC028091BB02C4
:1019D0008D3409F46EC2843511F40C94511C873493
:1019E00011F00C94761C2090B9023090BA0234E0C9
:1019F0002316310409F495C154F437FC56C2809182
:101A0000B70252E0251631040CF0FFC02FC08AE562
:101A10002816310409F4D4C164F4A5E12A1631046E
:101A200011F40C94781CBCE12B16310409F4B8C1F4
:101A30003CC2EBE52E16310409F4C6C1FCE52F16B5
:101A4000310409F032C29BE4292E92E0392E22E9BA
:101A5000E22E22E0F22EADE5BBE0BB8FAA8F3DE681
:101A6000C32E3BE0D32E00E010E0EFC1813011F037
:101A70000C94781C0E94D73387EA92E00E940E2FC4
:101A800080919B0883FD85C02091690B30916A0B82
:101A900040916B0B50916C0B6091B3027091B4024A
:101AA0008091B5029091B6020E948868882309F45B
:101AB00070C08091110481111BC060911604709157
:101AC000170480911804909119040E946F6E209160
:101AD000340230913502215031096217730744F402
:101AE0000E94A7278AEE99E00E94812711E001C099
:101AF00010E02091690B30916A0B40916B0B509173
:101B00006C0B6091B3027091B4028091B502909118
:101B1000B6020E94026D6B017C0120E030E0A90159
:101B20000E94636F87FF04C0F7FAF094F7F8F0940F
:101B300020913002309131024091320250913302B3
:101B4000C701B6010E94EE6820E030E048E453E4AB
:101B50000E94636F18163CF40E94A7278BEC99E053
:101B60000E94812702C01123A1F08091B3029091BD
:101B7000B402A091B502B091B6028093690B909324
:101B80006A0BA0936B0BB0936C0B83EB92E00E94FB
:101B90005D5A2AE037ED43E25CE360912C027091DC
:101BA0002D0280912E0290912F020E94EE686B010F
:101BB0007C0160912A0270912B02072E000C880B89
:101BC000990B0E948F689B01AC01C701B6010E946E
:101BD000EE6869837A838B839C838E010F5F1F4F2E
:101BE00023EB32E04FEA52E06BEA72E087EA92E0E0
:101BF0000E944E6080E1E7EAF2E0ADE5BBE00190D3
:101C00000D928A95E1F70C94781C813011F00C94B8
:101C1000781C0E94D73382E50E94CA33882309F4D6
:101C20004EC00E9445336B017C0120E030E0A901E9
:101C30000E948868882311F40C944D1D20915D0B3F
:101C400030915E0B40915F0B5091600B2A8F3B8F60
:101C50004C8F5D8F8091610B9091620BA091630B13
:101C6000B091640B8E8F9F8FA8A3B9A38090A70219
:101C70009090A802A090A902B090AA024090AB0256
:101C80005090AC026090AD027090AE02A50194013C
:101C90006A8D7B8D8C8D9D8D0E94886881110C943E
:101CA0008E1CA30192016E8D7F8D88A199A10E9447
:101CB0008868882311F40C944D1D0C948E1C89E4C3
:101CC0000E94CA33882329F00E9445336B017C01AE
:101CD00003C0C12CD12C76018AE40E94CA33882328
:101CE00011F40C94541D0E9445336AA37BA38CA36A
:101CF0009DA320E030E0A901C701B6010E948868D9
:101D000081110C94611D20E030E0A9016AA17BA142
:101D10008CA19DA10E94886881110C94611D0C9476
:101D20004D1D80E50E94CA33882379F08091A1027D
:101D30009091A202009749F04AE050E060E070E024
:101D40000E94FF666B017C0103C0C12CD12C76017F
:101D500083E50E94CA33882361F00E94453320E066
:101D600030E04AE754E40E94EE680E94766E6B0110
:101D70007C010E9482570E94045FC60ED71EE81E97
:101D8000F91E0E94045FDC01CB018C199D09AE098C
:101D9000BF09B7FD02C00C94781C0E94F928F1CF4E
:101DA0008091A0028770873011F00C94012160E0CF
:101DB0008FE40E94893481110C94781C0C940121C9
:101DC0001092B8020C94781C8FE08093B8020C94A7
:101DD000781C0E9445332B013C01133049F0D60199
:101DE0002D913D914D915C910E94026D2B013C0122
:101DF000EA8DFB8D2081318142815381C301B20183
:101E00000E94026D4B015C012DEB37E346E855EB78
:101E10000E94636F87FD21C02DEB37E346E855E351
:101E2000C501B4010E9488681816BCF01F5FF4E079
:101E3000EF0EF11C2A8D3B8D2C5F3F4F3B8F2A8F7D
:101E400034E0C30ED11C143031F1F10181911F0136
:101E50000E94CA33882351F3BCCF133051F440920F
:101E6000690B50926A0B60926B0B70926C0B01E0E5
:101E7000DDCFA5019401D7016D917D918D919C914C
:101E80000E94036DF7016083718382839383812FA6
:101E90000E94262ECBCF002321F089E69BE00E94F2
:101EA0005D5A0E9401300C94781C0E9439600C9499
:101EB000781C0091B9021091BA020637110509F495
:101EC0006CC60CF086C00836110509F4F8C10CF098
:101ED00040C00D34110509F4EEC1CCF40F311105E9
:101EE00009F429C154F40131110509F410C102317A
:101EF000110509F4E5C40C944E1C0B34110509F4CA
:101F0000C1C10C34110509F4C1C10C944E1C033538
:101F1000110509F4CDC48CF40135110509F4B8C4D8
:101F20000235110511F00C944E1C8091B8028F7D82
:101F300080618093B8020C94781C0535110509F472
:101F4000F6C40CF4BDC40C35110509F413C50C948A
:101F50004E1C0E36110509F4AEC3CCF40B36110538
:101F600009F49FC354F40936110509F461C30A3614
:101F7000110509F473C30C944E1C0C36110509F4B9
:101F8000F7C30D36110509F4BAC10C944E1C013784
:101F9000110509F4F5C384F40F36110509F49EC345
:101FA0000037110511F00C944E1C41E060E070E028
:101FB00085E197E00E94AB270337110509F46BC553
:101FC0000CF462C50537110511F40C94781C0C94BF
:101FD0004E1C033D110509F4EEC60CF046C00E3B45
:101FE000110509F418C40CF50937110509F414C6D4
:101FF00094F40737110509F40CC60837110511F0E0
:102000000C944E1C81E080939F0280939E020E945C
:10201000C2340C94781C0C38110509F4DBC30B395D
:10202000110509F40DC40C944E1C0B3C110509F468
:1020300068C654F4083C110509F4F5C5093C1105BE
:1020400009F438C60C944E1C0D3C110509F488C6E1
:102050000CF478C60E3C110511F00C944E1C9CE556
:10206000E92E92E0F92E10E095C60A3941E01407F6
:1020700009F482C314F50D3281E0180709F4DEC7B4
:1020800054F40C3D110509F45CC70D3D110509F42C
:102090007FC70C944E1C0F32A1E01A0711F40C9468
:1020A000E11814F40C949D180039114011F00C94AF
:1020B0004E1C0E9482570C94781C053FF1E01F07CC
:1020C00011F40C94301C9CF40C3A31E0130711F419
:1020D0000C94C11B043F114011F00C944E1C0E9443
:1020E000A32788E692E00E9481270C94781C073F82
:1020F00051E0150711F40C94391C14F40C94361C9F
:10210000073E134011F40C94421C0C944E1C809119
:102110008E0284FF02C00C942D228091900287FFD2
:1021200002C00C942D2280919102837011F00C94C6
:102130002D220C9449220E94A4307B018C0120E8BE
:1021400031E541E050E00E94796CC9016DE671E033
:102150000E94B56C4B015C01C801B70120E13EE073
:1021600040E050E00E94796CCA01B90128E130E0FA
:1021700040E050E00E94796C762E672EC62ED72E56
:102180008CE3282E312C412C512CC801B701A2011F
:1021900091010E94796CF62EE72ECA01B901A201C5
:1021A00091010E94796CCB018E010F5F1F4F81144A
:1021B000910499F0EF92FF927F936F936F927F92C9
:1021C000BF92AF929F928F9282E397E09F938F93FB
:1021D0001F930F930E94596813C0A114B104B1F06A
:1021E000EF92FF927F936F936F927F92BF92AF9225
:1021F00086E397E09F938F931F930F930E945968F4
:102200000FB6F894DEBF0FBECDBF30C0CD2879F039
:10221000EF92FF927F936F936F927F928AE397E0A2
:102220009F938F931F930F930E945968E9CF892B37
:1022300069F0EF92FF927F936F938EE397E09F9305
:102240008F931F930F930E945968DACFEF92FF92FA
:1022500082E497E09F938F931F930F930E94596896
:102260000F900F900F900F900F900F900E94A72744
:10227000B80186E497E00E9490278AE00E947A27BE
:102280000C94781C0E94F3300C94781C80918D0281
:10229000813011F00C94781C82E080938D020E94B2
:1022A000045F6093890270938A0280938B029093FB
:1022B0008C020C94781C0E9417310C94781C80912D
:1022C0009B0883FF02C00C94781C0E94263587FF70
:1022D00002C00C94781C83E50E94CA33882359F00D
:1022E0000E9445330E946F6ECB010E946F4561E0F2
:1022F00080E00E945A460E94FC560C94781C809103
:102300009B0883FF02C00C94781C0E9426358AAF7C
:1023100087FF02C00C94781C83E50E94CA338EAFFD
:1023200081110C94522282E50E94CA3381110C94CF
:10233000522210E00E94FC56112311F40C94781CD8
:102340005091880260965FAF60971092880281E09A
:1023500080930F021E8E1F8E18A219A21AAA1BAA02
:102360001CAA1DAA23961FAE23978CE327968FAF36
:1023700027979CE12B969FAF2B97A6E42F96AFAFA4
:102380002F97C12CD12C10E8E12E0FEBF02E1A8ED6
:10239000B1E0BEAB812C912C540160911A04709174
:1023A0001B04072E000C880B990B0E948F68162FB8
:1023B000072F782E692E9601A7010E94886888232E
:1023C00011F1209116043091170440911804509196
:1023D0001904EEAD612F702F872D962DE11107C0E6
:1023E0000E948868881F8827881F8A8F12C00E94D1
:1023F000886887FF0DC080910F02882309F411C1FE
:1024000010920F020EC11C2D0D2D7E2C6F2C01C0C1
:102410001A8E0E94045F6B017C01DC01CB012AA9AA
:102420003BA94CA95DA9821B930BA40BB50BB7FD6F
:1024300033C0D701C60188519C4FAF4FBF4F8AAB05
:102440009BABACABBDAB8AAD0E94B0458EE297E0D2
:102450000E94812781149104A104B104B9F0D5012F
:10246000C401805F984DAF4FBF4FBC01CD016C19C7
:102470007D098E099F0928EE33E040E050E00E947C
:10248000796CCA01B9010E94412803C08FE30E9400
:102490007A278AE00E947A270E94F9280E94045F26
:1024A0006093A3027093A4028093A5029093A60266
:1024B000909116049AA3A0911704AEA3B0911804AA
:1024C000BAA7E0911904EEA7292F3A2F4B2F5E2FC0
:1024D000612F702F872D962D0E94026D1B012C01FC
:1024E00020E030E0A9010E94636F87FF04C057FA23
:1024F000509457F8509481149104A104B104E1F46C
:1025000020E030E040E85FE3C201B1010E9488684A
:1025100087FF1EC0FEA9FF2339F0B5E08B2EBDE07A
:102520009B2EA12CB12C03C0812C912C54018C0C1E
:102530009D1CAE1CBF1C0CC020E030E040E450E409
:10254000C201B1010E94636F181614F446015701CD
:102550002A8D222309F448C08E8D9F8DA8A1B9A190
:10256000892B8A2B8B2B61F0D701C6012E8D3F8DD5
:1025700048A159A1821B930BA40BB50BB7FD34C026
:102580002AA13EA14AA55EA523966FAD2397279663
:102590007FAD27972B968FAD2B972F969FAD2F97BB
:1025A0000E94026D20E030E040EC5FE30E9488680A
:1025B00087FD21CFD701C601805A9541AF4FBF4F4C
:1025C0008E8F9F8FA8A3B9A39AA123969FAF23971D
:1025D000AEA12796AFAF2797BAA52B96BFAF2B9783
:1025E000EEA52F96EFAF2F9780910F02882309F465
:1025F00002CF81149104A104B10431F41EAAC12EAA
:10260000D02EE72CF62CC9CEF0E1CF1AF7E2DF0A84
:10261000E108F108C818D908EA08FB08F7FCEECF72
:10262000EACE60962FAD6097209388020C94781CB8
:102630000E942635182F87FD0AC085E692E00E9489
:102640008127812F0E94B0458AE00E947A27A496B4
:102650003FADA4973093BC020C94C62680E50E943F
:10266000476081110C94781C81E40E947C3388239C
:1026700021F060910004062F02C00FEF10E083E507
:102680000E94CA33882349F00E9411338B016F3FA7
:10269000710519F010F00FEF10E0009300040C9496
:1026A000781C80E50E94476081110C94781C109280
:1026B00000040C94781C8EE40E94CA33882311F421
:1026C0000C94781C0E9411336093840270938502ED
:1026D00080938602909387020C94781C83E50E9475
:1026E0007C33882329F083E50E94476080939B0810
:1026F0000E94A72787E297E00E94812780919B088C
:10270000882369F1A8E7EA2EA7E0FA2E00E010E09E
:1027100020E080919B0890E0A0E0B0E0002E04C093
:10272000B695A795979587950A94D2F780FF0EC026
:10273000DD24D394D20E222319F08CE20E947A2752
:10274000F701859194910E9481272D2D0F5F1F4FD6
:1027500042E0E40EF11C05301105D9F604C083E215
:1027600097E00E9481278AE00E947A270C94781CC7
:1027700010920F020C94781C0E94FB260C94781C7B
:1027800083E50E94CA33882381F00E942133282FD9
:1027900030E02D33310524F480930E020C94781C24
:1027A0008CE380930E020C94781C0E94A727C090A3
:1027B0000E02D12CE12CF12C8EE097E00E948127B3
:1027C0004AE0C701B6010E94D4278AE00E947A2716
:1027D0000C94781C80919B0883FF02C00C94781C99
:1027E00083E50E94CA33882311F40C94781C0E945C
:1027F00045330E946F6E6C3871050CF48B01109399
:102800008202009381020E94704661E080E00E9493
:102810005A460C94781C80919B0883FF02C00C944C
:10282000781C83E50E94CA338AAF81110C94602220
:1028300082E50E94CA3381110C9460220C94781CAA
:1028400083E50E94CA33882311F40C94781C0E94FB
:102850002133182F90E0CD970CF01CE310937802F1
:102860000E94045F6B017C01212F30E0A8EEB3E0F1
:102870000E94A66CC60ED71EE81EF91EC0927402F6
:10288000D0927502E0927602F09277020C94781C56
:102890000E94A8460E9417310E949257109200048D
:1028A00068EE73E080E090E00E949E340C94781C07
:1028B0008091B8028F7E80628093B8020C94781C5D
:1028C00083E50E94CA338823F1F00E94045F60937D
:1028D000A3027093A4028093A5029093A6020E9483
:1028E000453320E030E04AE754E40E94EE680E945D
:1028F000766E60930A0270930B0280930C029093A1
:102900000D020C94781C80918E0284FF02C00C94FE
:10291000DF238091900287FF02C00C94DF23809117
:102920009102837011F00C94DF230C94102483E542
:102930000E947C33882309F4DBC70E94045F609304
:10294000A3027093A4028093A5029093A6020E9412
:10295000453320E030E04AE754E40E94EE680E94EC
:10296000766E60936F027093700280937102909301
:102970007202BEC70E94263587FDBAC790918E02AB
:1029800094FD04C09091900297FF0AC05BE4C52EAD
:1029900052E0D52E6CE9E62E68E0F62E10E009C074
:1029A00090919102937091F7682F81E00E94DE343C
:1029B0009FC7D6018D916D010E94CA33882309F407
:1029C00059C0133009F04FC00E9445334B015C01E0
:1029D00020E030E040EA51E40E94886887FF3AC076
:1029E000A50194016091BC087091BD088091BE085A
:1029F0009091BF080E94FD6D2B013C019B01AC0131
:102A00006091CC087091CD088091CE089091CF084C
:102A10000E94EE686093CC087093CD088093CE0836
:102A20009093CF086091F8037091F9038091FA03B5
:102A30009091FB030E948D68A30192010E94EE68B1
:102A40000E94766E6093F8037093F9038093FA0303
:102A50009093FB038092BC089092BD08A092BE08A0
:102A6000B092BF0807C00E944533F701648B758B95
:102A7000868B978B1F5FF4E0EF0EF11C143009F08A
:102A800098CF0E94925B34C70E94D45F84EA9BE097
:102A90000E94764D2DC788E396E00E94812760E072
:102AA00088E296E00E94F73260E083E196E00E94BF
:102AB000F73260E08CE096E00E94F73261E081E05E
:102AC00096E00E94F73261E081EF95E00E94F732D4
:102AD00060E088EE95E00E94F73261E08EED95E0CF
:102AE0000E94F73260E084ED95E00E94F73260E0EA
:102AF0008DEC95E00E94F73260E085EC95E00E9455
:102B0000F73260E087EB95E00E94F73260E089EAF7
:102B100095E00E94F73260E08AE995E00E94F73282
:102B200060E08CE895E00E94F73260E086E795E08F
:102B30000E94F73260E085E695E00E94F73260E09F
:102B400086E595E00E94F73260E08FE495E00E9410
:102B5000F73260E08AE395E00E94F73260E08CE2B1
:102B600095E00E94F73261E089E195E00E94F7323A
:102B700060E08CE095E00E94F73261E087E095E04C
:102B80000E94F73260E08AEF94E00E94F73260E042
:102B900086EE94E00E94F732ABC600916D02109170
:102BA0006E0294E0F12C40E0915031F1D8018C910B
:102BB000282F2B7F213429F411962C912133E1F415
:102BC00008C08035C9F4F801818180538A3048F00B
:102BD00013C0813421F0853421F441E002C0FF2488
:102BE000F39498012E5F3F4F89012F5F3F4FD8012B
:102BF0008C918032C9F3D8CF41110E94A727FF20C2
:102C000021F082EE94E00E948127C8010E94D8281A
:102C10006FC60E9488306CC610929F0210929E026E
:102C20000E94C23465C60E942635182F87FD60C6F3
:102C300000916C0284E40E94CA33882311F40C943E
:102C400013240E9445336B017C0120E030E0A90190
:102C50000E948868882341F1B4E01B02F00111242E
:102C6000E859FD4FC082D182E282F38220E030E059
:102C7000A901609168027091690280916A02909145
:102C80006B020E94886881110CC080E090E0A0E493
:102C9000B0E48093680290936902A0936A02B093B3
:102CA0006B0201E00C94132480E080936C020E947C
:102CB000A3571EC60E94263587FD1AC63BE4E32EA5
:102CC00032E0F32E0CE918E04CEAC42E48E0D42E92
:102CD000F70181917F010E947C33882361F00E947B
:102CE00045330E94766ED8016D937D938D939C93AE
:102CF00013970E943B570C5F1F4FC016D10641F738
:102D0000F7C50E94263587FDF3C52BE4E22E22E0AD
:102D1000F22E0CE918E0F70181917F010E947C33CB
:102D2000882349F00E944533D80194966D937D9392
:102D30008D939C9397970C5F1F4FB8E00C3A1B073D
:102D400051F7D6C580918F0287FF02C00C941924D9
:102D5000809190028E7011F00C9419240C945F24D1
:102D600080918E0281FF02C00C94882480918F0292
:102D700081FF02C00C948824809190028C7011F025
:102D80000C948824B5C51F5FF4E0EF0EF11C1330DE
:102D900009F487C888E5810F0E947C33882399F362
:102DA0000E944533F7016083718382839383812F6F
:102DB0000E94262EE8CF40906D0B50906E0B6090D5
:102DC0006F0B7090700B20911202309113024091A2
:102DD000140250911502C301B2010E94036D6A8F63
:102DE0007B8F8C8F9D8F8090710B9090720BA09039
:102DF000730BB090740B2091160230911702409122
:102E0000180250911902C501B4010E94036D6E8F22
:102E10007F8F88A399A3C090750BD090760BE0901C
:102E2000770BF090780B20911A0230911B024091A1
:102E30001C0250911D02C701B6010E94036D6AA3D6
:102E40007BA38CA39DA320911E0230911F02409171
:102E5000200250912102C301B2010E94036D2B0197
:102E60003C01209122023091230240912402509192
:102E70002502C501B4010E94036D4B015C01209144
:102E80002602309127024091280250912902C70161
:102E9000B6010E94036D6B017C010E94A7278DE99A
:102EA00094E00E94812783E50E947C33882321F0EF
:102EB0000E9435338093100280911002882319F00C
:102EC0008AE492E002C084E396E00E94812785E9CB
:102ED00094E00E9481274A8D5B8D6C8D7D8D88E00A
:102EE0009DE00E94CD344E8D5F8D68A179A18AE866
:102EF00094E00E94CD344AA15BA16CA17DA187E83A
:102F000094E00E94CD3484EE94E00E9481278DE805
:102F100094E00E948127B301A20188E09DE00E9415
:102F2000CD34B501A4018AE894E00E94CD34B70104
:102F3000A60187E894E00E94CD348AE00E947A27B7
:102F4000D7C483E50E94CA33882331F00E9411332D
:102F500070932B0260932A0280918E0290918F02CF
:102F6000A0919002B0919102892B8A2B8B2B09F0B2
:102F7000BFC460912A0270912B0283E894E00E9402
:102F8000193585E20E947A278AE00E947A27B0C428
:102F90000E942635F82E87FDABC483E50E94CA3314
:102FA0000F2D0F2C000C110B882369F10E94113397
:102FB000F801EE0FFF1FE85FFD4F71836083000F84
:102FC000111F000F111F9801205D3D4F7901072E41
:102FD000000C880B990B0E948F682AE037ED43E2C2
:102FE0005CE30E94EE68F801E85AFD4F20813181D0
:102FF000428153810E94EE68D7016D937D938D933A
:103000009C93139775C40E94A72785E40E947A2792
:1030100080E38F0D0E947A27000F111FF801E85FEF
:10302000FD4F608171818BE794E00E94193585E244
:103030000E947A278AE00E947A275AC485E40E9477
:103040004760811173C080E50E947C33882351F072
:103050000E94453360931D0470931E0480931F04E7
:103060009093200489E40E947C33882381F00E949D
:1030700045332CEA35EC47E25EE30E94EE6860934C
:10308000210470932204809323049093240484E405
:103090000E947C33882381F00E9445332CEA35EC72
:1030A00047E25EE30E94FD6D609325047093260461
:1030B00080932704909328040E94A72740911D0421
:1030C00050911E0460911F047091200485E694E0E5
:1030D0000E94CD342CEA35EC47E25EE36091210496
:1030E0007091220480912304909124040E94FD6D2C
:1030F000AB01BC0181E694E00E94CD342CEA35ECB2
:1031000047E25EE3609125047091260480912704D4
:10311000909128040E94EE68AB01BC018DE594E01B
:103120000E94CD348AE00E947A27E2C30E94A3273E
:1031300089E694E00E948127DBC383E50E947C330B
:10314000182F882371F00E9445330E946F6E709390
:1031500035026093340221E0672B09F020E02093D0
:10316000110480E50E947C33882359F020913402B9
:1031700030913502232B11F00E94353380931104D6
:10318000B7C31111B5C30E94A7278AE494E00E9437
:10319000812780911104882319F084E899E002C006
:1031A00081E394E00E94812760913402709135029E
:1031B00089E394E00E94193585E394E00E94812719
:1031C00097C385E40E94CA33882349F00E941133D3
:1031D000662329F087E094E00E94812789C383E475
:1031E0000E94CA33882331F00E9411336D966FAF6D
:1031F0006D9704C0B5E06D96BFAF6D9760E085E553
:103200000E948934E2968FAFE29783E50E94CA3329
:10321000882319F00E94453304C060E070E084E325
:1032200093E40E946F6E072E000C880B990B0E948E
:103230008F686E8F7AA38EA39AA70E94045F2B01DA
:103240003C0160910602709107026F507109072ED0
:10325000000C880B990B0E948F689B01AC016E8D4E
:103260007AA18EA19AA50E94636F18162CF48CED9A
:1032700093E00E9481273CC3A3019201205E314B61
:103280004F4F5F4FE1962CAF3DAF4EAF5FAFE19731
:1032900088EC93E00E9481270E94A8468FE78093E4
:1032A0001C0481E080930F0264964CAE5DAE6EAE5E
:1032B0007FAE6497A8964CAE5DAE6EAE7FAEA8971B
:1032C0008FE790E0A0E0B0E08EA79FA7A8ABB9ABD6
:1032D0006C961CAE1DAE1EAE1FAE6C9768961CAEF3
:1032E0001DAE1EAE1FAE6897812C912C54011EAEF0
:1032F00090E49AABACE1AEABB6E42396BFAF2397B4
:1033000027961FAE27972B961FAE2B972F961FAE93
:103310002F9760961FAE6097A9961FAEA997AD969E
:103320008CAE9DAEAEAEBFAEAD97FFE7CF2ED12C2B
:10333000E12CF12CA3961CAE1DAE1EAE1FAEA397C2
:10334000E1E06F96EFAF6F971BAE1AAE10E0212C45
:10335000312C00E06D962FAD6D97022E000C330BD3
:103360006E963FAF2EAF6E970E94045F6A8F7B8F81
:103370008C8F9D8F80915702882309F4B5C00E94DD
:103380000A481091160420901704309018040091F8
:10339000190427962FAD27972B963FAD2B972F9685
:1033A0004FAD2F9760965FAD6097612F722D832D83
:1033B000902F0E94636F181664F427961FAF27970B
:1033C0002B962FAE2B972F963FAE2F9760960FAF71
:1033D00060972EAD3AA94EA923965FAD2397612F32
:1033E000722D832D902F0E94886887FF06C01EAF24
:1033F0002AAA3EAA23960FAF23976F963FAD6F97E9
:10340000212F332309F44DC0322D432D502F6E8DC3
:103410007AA18EA19AA50E94886887FF65C04A8D0F
:103420005B8D6C8D7D8D4419550966097709DB012B
:10343000CA0188589341A109B109B7FD55C08EA5AD
:103440009FA5A8A9B9A98C199D09AE09BF09B59571
:10345000A7959795879580931C04A3964CAF5DAF75
:103460006EAF7FAFA3974E8D27964FAF27975AA188
:103470002B965FAF2B978EA12F968FAF2F979AA584
:1034800060969FAF60972A8D3B8D4C8D5D8D6496C5
:103490002CAF3DAF4EAF5FAF64976F961FAE6F9787
:1034A00023C0322D432D502F6E8D7AA18EA19AA567
:1034B0000E94636F1816C4F48A8D9B8DAC8DBD8DF0
:1034C00064962CAD3DAD4EAD5FAD6497821B930B02
:1034D000A40BB50BAC01BD014858534161097109FA
:1034E00077FD02C00C94F22420E030E040EF51E47C
:1034F0006E8D7AA18EA19AA50E94036D212F322D87
:10350000432D502F0E94886887FF03C08CED93E005
:10351000BAC08A8D9B8DAC8DBD8DA8962CAD3DAD6E
:103520004EAD5FADA897821B930BA40BB50BB7FDF7
:103530008CC080E00E94B0458AE00E947A278A8D84
:103540009B8DAC8DBD8D8053984FAF4FBF4FA896CC
:103550008CAF9DAFAEAFBFAFA897A9969FADA9970F
:10356000911158C0AD962CAD3DAD4EAD5FADAD9750
:10357000612F722D832D902F0E94636F1816ACF56A
:1035800020E030E040E050E4612F722D832D902F39
:103590000E94036DAD966CAF7DAF8EAF9FAFAD97C0
:1035A0002A8D3B8D4C8D5D8D205E314B4F4F5F4F93
:1035B000E1962CAF3DAF4EAF5FAFE19720E030E03A
:1035C00040EC50E46E8D7AA18EA19AA50E94026D06
:1035D000212F322D432D502F0E948868881F882765
:1035E000881FA9968FAFA99730C08A8D9B8DAC8D0F
:1035F000BD8DE1962CAD3DAD4EAD5FADE197821B2B
:10360000930BA40BB50BB7FD20C041E653E060E778
:1036100073E018C020E030E040EF51E46E8D7AA1F5
:103620008EA19AA50E94026D9B01AC01612F722DA3
:10363000832D902F0E94886887FF07C041E453E0E4
:1036400061E573E080E00E94274864968CAD9DADF3
:10365000AEADBFAD6497481659066A067B0610F4F6
:10366000D301C2012A8D3B8D4C8D5D8D281B390BFA
:103670004A0B5B0BDA01C90181389F44A241B105B5
:1036800048F083E293E00E94812710920F020E948B
:10369000A8462EC16E964EAD5FAD6E978AAD9BADBE
:1036A000481759070CF060CE03970CF45DCE86ECFA
:1036B00092E00E94812789EA92E00E948127B50169
:1036C000A40182EC92E00E94CD348AE00E947A2725
:1036D00089EA92E00E94812768964CAD5DAD6EAD9F
:1036E0007FAD68978EEB92E00E94CD348AE00E9415
:1036F0007A2789EA92E00E9481276C964CAD5DADF5
:103700006EAD7FAD6C978AEB92E00E94CD348AE07B
:103710000E947A27E2969FADE297992309F4E8C0C8
:1037200080921D0490921E04A0921F04B092200467
:103730002CEA35EC47E25EE368966CAD7DAD8EAD6C
:103740009FAD68970E94EE686093210470932204F5
:1037500080932304909324042CEA35EC47E25EE343
:103760006C966CAD7DAD8EAD9FAD6C970E94FD6D7E
:103770006093250470932604809327049093280473
:10378000B7C09091A00290FD02C087E001C086E022
:1037900091FD8D7FDE0111961D0192FD02C00C94FA
:1037A00045268B7F11F00C946F260CE617E0EDE5B3
:1037B000FBE0FB8FEA8F99E6C92E97E0D92E7D01B9
:1037C000F8016591759185919491AA8DBB8D8D902D
:1037D0009D90AD90BD90BB8FAA8FA50194010E94D2
:1037E000026D2B013C01F701608371838283938317
:1037F00020E030E040EA51EC0E94636F87FD0AC090
:1038000020E030E040EA51E4C301B2010E94886840
:10381000181634F4F6018491181614F40C947226D8
:10382000D7018D909D90AD90BD907D0120E030E05E
:1038300040EA51ECC501B4010E94636F87FF02C0EA
:103840000C947E2620E030E040EA51E4C501B4014A
:103850000E948868181614F00C9486260C947E2614
:103860000E94085C80E00E94265542C00E94085CCD
:103870003FC061E083E50E94893491E089270E947E
:10388000265536C081E08093B70260E083E50E9450
:10389000893481112DC00E942C312AC00E943960C8
:1038A00027C00091B9021091BA020E94045F609390
:1038B000A3027093A4028093A5029093A602002312
:1038C000B9F00E94A72784E50E947A27B8017727DC
:1038D000072E000C880B990B0E94412880E20E9461
:1038E0007A2789E694E00E94812702C00E9439600D
:1038F000E0915602F0E0EC54F44F8081882339F0D7
:1039000085E692E00E9481278AE00E947A27A496A9
:10391000FFADA497F093BC020C94C62611E022E000
:103920002216310409F010E020E030E0A901C701BF
:10393000B6010E948868881F8827881F1813A4C0B2
:1039400020E030E040E85FE32AA33BA34CA35DA363
:103950002A8D3B8D4C8D5D8DC501B4010E94026D99
:1039600020E030E040E05FE30E94EE686A8F7B8FEA
:103970008C8F9D8F2E8D3F8D48A159A1C301B2011F
:103980000E94026D20E030E040E05FE30E94EE68BC
:103990006E8F7F8F88A399A32A8D3B8D4C8D5D8D73
:1039A000CA01B9010E94EE684B015C012E8D3F8D6A
:1039B00048A159A1CA01B9010E94EE689B01AC015E
:1039C000C501B4010E94036D0E94B16F4B015C01FF
:1039D0009B01AC01C701B6010E94026D2B013C01A5
:1039E000A5019401C701B6010E94036D9B01AC01C2
:1039F000C301B2010E94EE686B017C0120E030E05F
:103A0000A9010E94636F87FD07C0C701B6010E942C
:103A1000B16F2B013C0103C0412C512C32016E8D42
:103A20007F8D88A199A19058A50194010E94FD6DF8
:103A30002AA13BA14CA15DA10E94EE68A3019201C5
:103A40000E94EE682A8D3B8D4C8D5D8D0E94036D2A
:103A50006B017C01A50194016A8D7B8D8C8D9D8D00
:103A60000E94FD6D2AA13BA14CA15DA10E94EE68C0
:103A7000A30192010E94EE682E8D3F8D48A159A1AD
:103A80000E94036D0C94750E80E090E0A0E8BFEBFF
:103A90008AA39BA3ACA3BDA35BCF0E94A32783E50E
:103AA00097E00E94812724CF20E030E0A901C701E0
:103AB000B6010E948868882381F31AA21BA21CA267
:103AC0001DA2A701960150582A8F3B8F4C8F5D8F06
:103AD0008AA19BA1ACA1BDA1B0588E8F9F8FA8A336
:103AE000B9A3CA01B9010E94EE684B015C012E8D99
:103AF0003F8D48A159A1CA01B9010E94EE689B01FE
:103B0000AC01C501B4010E94036D0E94B16F6EABA0
:103B10007FAB88AF99AF20915D0B30915E0B4091E8
:103B20005F0B5091600B2EA33FA348A759A7A70195
:103B300096016EA17FA188A599A50E94036D6AAF29
:103B40007BAF8CAF9DAF8091610B9091620BA09188
:103B5000630BB091640B8AA79BA7ACA7BDA72AA152
:103B60003BA14CA15DA1BC01CD010E94036D229639
:103B70006CAF7DAF8EAF9FAF22972091A70230919F
:103B8000A8024091A9025091AA022EA73FA748ABD4
:103B900059AB2AAD3BAD4CAD5DAD6EA57FA588A9F7
:103BA00099A90E94026D6B017C018091AB029091FA
:103BB000AC02A091AD02B091AE028AAB9BABACABB4
:103BC000BDAB22962CAD3DAD4EAD5FAD2297BC0195
:103BD000CD010E94026D4B015C01A70196016A8D27
:103BE0007B8D8C8D9D8D0E94EE682B013C01A50183
:103BF00094016E8D7F8D88A199A10E94EE689B0132
:103C0000AC01C301B2010E94036D2B013C01A5016F
:103C100094016A8D7B8D8C8D9D8D0E94EE684B0189
:103C20005C01A70196016E8D7F8D88A199A10E94EC
:103C3000EE689B01AC01C501B4010E94026DA301B5
:103C400092010E94826D6B017C0120E030E0A901AD
:103C50000E94886887FF0AC02BED3FE049EC50E4E2
:103C6000C701B6010E94036D6B017C012BED3FE0A3
:103C700049EC50E4C701B6010E94FD6D20E030E040
:103C800040EC51E40E94EE680E94E16D0E94766E65
:103C90008B01672B11F401E010E032E023163104B0
:103CA00051F42BED3FE049EC50E4C701B6010E940E
:103CB000026D6B017C0120E030E0A901C701B60173
:103CC0000E948868811122C02EA53FA548A959A944
:103CD0006EA17FA188A599A50E948868811116C050
:103CE0002AA93BA94CA95DA96AA57BA58CA59DA580
:103CF0000E94886881110AC008E110E05BEDC52EC2
:103D00005FE0D52E59ECE52E50E4F52E8091650B41
:103D10009091660BA091670BB091680B8AA79BA747
:103D2000ACA7BDA79C01AD016091AF027091B0023C
:103D30008091B1029091B2020E94026D2B013C0170
:103D4000A70196016EA97FA988AD99AD0E94EE6882
:103D50004B015C0120E030E0A901C301B2010E94E7
:103D600088688823C9F0A5019401C501B4010E94A7
:103D7000EE684B015C01A3019201C301B2010E94F4
:103D8000EE689B01AC01C501B4010E94036D0E9465
:103D9000B16F4B015C010DC020E030E0A901C5010D
:103DA000B4010E94636F87FF04C0B7FAB094B7F8FC
:103DB000B0942FE632E143E85AE3C501B4010E9412
:103DC000886887FD13C22091B3023091B4024091FC
:103DD000B5025091B6022AAB3BAB4CAB5DAB8091C8
:103DE000690B90916A0BA0916B0BB0916C0B8EA735
:103DF0009FA7A8ABB9AB2AE037ED43E25CE3609143
:103E00002C0270912D0280912E0290912F020E941F
:103E1000EE686EA37FA388A799A760912A0270918C
:103E20002B02072E000C880B990B0E948F689B01B8
:103E3000AC016EA17FA188A599A50E94EE686E8B4A
:103E40007F8B888F998FC501B4010E94A56E0E9457
:103E5000766E1B016017710708F41801B10180E04C
:103E600090E00E948D684B015C019B01AC01C70191
:103E7000B6010E94FD6D6EA37FA388A799A7A50137
:103E80009401C301B2010E94FD6D2A966CAF7DAF13
:103E90008EAF9FAF2A972EA53FA548A959A96AA919
:103EA0007BA98CA99DA90E94026DA50194010E9485
:103EB000FD6D2E966CAF7DAF8EAF9FAF2E972EA16E
:103EC0003FA148A559A5CA01B9010E94EE686B013E
:103ED0007C019B01AC016EA17FA188A599A50E94E0
:103EE000EE6820E030E040EC50E40E94FD6D9B0164
:103EF000AC016EA17FA188A599A50E94026D6AAB55
:103F00007BAB8CAB9DAB20E030E040E05FE3C701D2
:103F1000B6010E94EE689B01AC0160E070E080E8B1
:103F20009FE30E94026D6EAB7FAB88AF99AF2AA56D
:103F30003BA54CA55DA529873A874B875C878EA555
:103F40009FA5A8A9B9A98D879E87AF87B88B0E9426
:103F5000045F9B01AC0128533F4F4F4F5F4F2696A4
:103F60002CAF3DAF4EAF5FAF26974A8C5B8C6C8C0D
:103F70007D8C41E050E05BA74AA759E15EA78AA586
:103F80009BA58215930508F00BC10E944D4A0E9423
:103F9000045FDC01CB0126962CAD3DAD4EAD5FAD8F
:103FA0002697821B930BA40BB50BB7FD10C00E9484
:103FB000045F9B01AC0128533F4F4F4F5F4F269644
:103FC0002CAF3DAF4EAF5FAF26970E94F9283EA5BC
:103FD00031503EA73323E9F12E8D3F8D48A159A1E1
:103FE0006EA97FA988AD99AD0E94EE686B017C0136
:103FF0009201A3016AA97BA98CA99DA90E94EE68E0
:10400000A70196010E94036D7B018C019201A3011F
:104010006EA97FA988AD99AD0E94EE684B015C0145
:104020002E8D3F8D48A159A16AA97BA98CA99DA974
:104030000E94EE689B01AC01C501B4010E94026DB3
:104040002B013C01C701D8018E8F9F8FA8A3B9A374
:104050004FC04AA55BA5BA0180E090E00E948D6840
:104060002EA13FA148A559A50E94EE684B015C0115
:104070000E94F86D6B017C01C501B4010E94A36F21
:104080004B015C01A70196016A8D7B8D8C8D9D8D06
:104090000E94EE682B013C012AA13BA14CA15DA12D
:1040A000C501B4010E94EE68A30192010E94036D54
:1040B0002B013C01A50194016A8D7B8D8C8D9D8D1A
:1040C0000E94EE684B015C012AA13BA14CA15DA1BD
:1040D000C701B6010E94EE689B01AC01C501B401A5
:1040E0000E94026D6E8F7F8F88A399A359E15EA70E
:1040F0009201A3016AAD7BAD8CAD9DAD0E94036DB5
:1041000069837A838B839C832E8D3F8D48A159A12F
:1041100022966CAD7DAD8EAD9FAD22970E94036D52
:104120006D837E838F8398872A962CAD3DAD4EADEF
:104130005FAD2A9769857A858B859C850E94036D82
:1041400069877A878B879C872E962CAD3DAD4EADC7
:104150005FAD2E976D857E858F8598890E94036D52
:104160006D877E878F87988BCE0101960E940E2FD8
:104170008E010A5E1F4F9E01235F3F4FAE01475FD6
:104180005F4FBE016B5F7F4FCE0101960E944E6074
:10419000882331F08AA59BA501969BA78AA7EFCE1D
:1041A00080E1E7EAF2E0DE01119601900D928A9536
:1041B000E1F7CE0101960E940E2F8E010A5E1F4F7D
:1041C0009E01235F3F4FAE01475F5F4FBE016B5FB4
:1041D0007F4FCE0101960E944E6080E1FE01319634
:1041E000ADE5BBE001900D928A95E1F70E94045F76
:1041F0006093A3027093A4028093A5029093A602F9
:1042000077CB0E948257109211020E94045F609344
:10421000A3027093A4028093A5029093A6028091BA
:104220002C0290912D02A0912E02B0912F0280932A
:10423000BF029093C002A093C102B093C2028091CA
:104240002A0290912B029093BE028093BD0284E6D5
:1042500090E090932B0280932A0281E080939F024A
:104260000E94C2348AE50E947C33382E88E50E9481
:104270007C33882E89E50E947C338812ECC0381488
:1042800011F0D82C06C0DD24D394882483943324E1
:10429000339482E50E94CA33882369F00E94453333
:1042A0002B013C0120E030E0A9010E9488688823AE
:1042B00009F4A1C006C0412C512C40EA642E40E410
:1042C000742E811003C0DD2009F49FC020E030E08F
:1042D000A901C301B2010E94036D7B018C01909082
:1042E000650BC090660BB090670BA090680B292DF2
:1042F0003C2D4B2D5A2D0E94886840905D0B5090AC
:104300005E0B60905F0B7090600B2091610B3091A1
:10431000620B4091630B5091640B2A8F3B8F4C8F43
:104320005D8F20E030E048E453E487FD16C5B70117
:10433000C8010E94886887FD04C0E12CF12C08E4C4
:1043400013E480E090E0A0E0B0E48E8B9F8BA88F18
:10435000B98F89839A83AB83BC839701A801692DA8
:104360007C2D8B2D9A2D0E94886887FF0EC0C70177
:10437000D8018093650B9093660BA093670BB09365
:10438000680BCE0146960E94AF2F40925D0B509273
:104390005E0B60925F0B7092600B8A8D9B8DAC8D73
:1043A000BD8D8093610B9093620BA093630BB093D0
:1043B000640BCE0101960E94AF2F9701A801609176
:1043C000650B7091660B8091670B9091680B0E9452
:1043D000636F181674F4C701D8018093650B90932E
:1043E000660BA093670BB093680BCE0146960E94B4
:1043F000AF2F0E948257882019F080E00E94D45D80
:10440000DD2019F081E00E94D45D332019F082E0B4
:104410000E94D45D0E94BF2F80919E0280939F02D4
:104420008091BF029091C002A091C102B091C202DE
:1044300080932C0290932D02A0932E02B0932F0212
:104440008091BD029091BE0290932B0280932A022C
:104450000E9401304DCAD82E1CCF88E50E947C33C3
:1044600081115F9889E50E947C3381118A988AE5E1
:104470000E947C33882329F0809108018170809309
:10448000060185E40E947C33882309F431CA12981E
:104490002FCA5F988A9880910801817080930601E5
:1044A000129826CA0E9445330E946F6ECB010E946B
:1044B0006F4561E081E00E945A4611E00C949A1128
:1044C0000E9445330E946F6E6C3871050CF074C108
:1044D00070938202609381020E94704660E081E0E6
:1044E0000E945A4681E080930F021E8E1F8E18A2F2
:1044F00019A222961CAE1DAE1EAE1FAE22971EAA9A
:104500005CE323965FAF23978CE127968FAF2797C5
:1045100096E42B969FAF2B97C12CD12CE0E8EE2E82
:10452000FFEBFF2E1A8EA1E0AAAB812C912C540137
:104530006091810270918202072E000C880B990B0A
:104540000E948F68162F072F782E692E9601A701DB
:104550000E948868882311F120917D0230917E02AB
:1045600040917F0250918002BAAD612F702F872D4C
:10457000962DB11107C00E948868881F8827881F60
:104580008A8F12C00E94886887FF0DC080910F0239
:10459000882309F4ADC910920F02AAC91C2D0D2D54
:1045A0007E2C6F2C01C01A8E0E94045F6B017C016F
:1045B000DC01CB0122962CAD3DAD4EAD5FAD229717
:1045C000821B930BA40BB50BB7FD35C0D701C601F9
:1045D00088519C4FAF4FBF4F22968CAF9DAFAEAF6F
:1045E000BFAF229780E00E94B0458EE297E00E9424
:1045F000812781149104A104B104B9F0D501C4014B
:10460000805F984DAF4FBF4FBC01CD016C197D0944
:104610008E099F0928EE33E040E050E00E94796C5B
:10462000CA01B9010E94412803C08FE30E947A2782
:104630008AE00E947A270E94F9280E94045F609312
:10464000A3027093A4028093A5029093A602909176
:104650007D029AA3A0917E02AEA3B0917F02BAA779
:10466000E0918002EEA7292F3A2F4B2F5E2F612F6A
:10467000702F872D962D0E94026D1B012C0120E0CA
:1046800030E0A9010E94636F87FF04C057FA50947D
:1046900057F8509481149104A104B104E1F420E08E
:1046A00030E040E85FE3C201B1010E94886887FF03
:1046B0001EC0FAA9FF2339F075E0872E7DE0972E02
:1046C000A12CB12C03C0812C912C54018C0C9D1C6D
:1046D000AE1CBF1C0CC020E030E040E450E4C2013E
:1046E000B1010E94636F181614F4460157012A8D18
:1046F000222309F444C08E8D9F8DA8A1B9A1892BD6
:104700008A2B8B2B61F0D701C6012E8D3F8D48A1DE
:1047100059A1821B930BA40BB50BB7FD30C02AA186
:104720003EA14AA55EA56EA923967FAD2397279645
:104730008FAD27972B969FAD2B970E94026D20E09F
:1047400030E040E85FE30E94886887FD1FCFD70113
:10475000C601805A9541AF4FBF4F8E8F9F8FA8A340
:10476000B9A39AA19EABAEA12396AFAF2397BAA5EA
:104770002796BFAF2797EEA52B96EFAF2B9780918B
:104780000F02882309F402CF81149104A104B1041B
:1047900031F41AAAC12ED02EE72CF62CC9CEF0E1A6
:1047A000CF1AF7E2DF0AE108F108C818D908EA08C9
:1047B000FB08F7FCEECFEACE6CE870E089CE0E94F1
:1047C000825788E50E947C33882331F05F9A80917C
:1047D00073028E7F8093730289E50E947C33882365
:1047E00031F08A9A809173028D7F809373028AE5FB
:1047F0000E947C33882359F0809108018095817054
:1048000080930601809173028B7F8093730285E40D
:104810000E947C33882309F46BC80E94E02668C894
:104820000E94925765C8602F83E50E9489340C94DA
:10483000551683E50E94CA33882391F00E944533C0
:104840006093D0087093D1088093D2089093D308D6
:104850006093D8087093D9088093DA089093DB08A6
:1048600080E50E94CA33882351F00E94453360934B
:10487000D0087093D1088093D2089093D30882E532
:104880000E94CA33882351F00E9445336093D408B4
:104890007093D5088093D6089093D70884E50E943A
:1048A000CA33882309F424C80E9445336093D8088A
:1048B0007093D9088093DA089093DB0819C8409167
:1048C000D0085091D1086091D2087091D30882ED40
:1048D00094E00E94CD344091D4085091D508609165
:1048E000D6087091D7088FEC94E00E94CD344091A7
:1048F000D8085091D9086091DA087091DB088CECE7
:1049000094E00E94CD348AE00E947A270C94781CAF
:1049100082E40E947C338823C1F08091A1029091AF
:10492000A202009739F04AE050E060E070E00E9497
:10493000FF6603C060E070E0CB016093AC08709349
:10494000AD088093AE089093AF0883E50E947C3356
:10495000882351F00E9445336093DC087093DD0892
:104960008093DE089093DF0884E50E947C338823DF
:1049700051F00E9445336093E0087093E108809302
:10498000E2089093E3088AE40E947C33882311F4C0
:104990000C94781C0E9445336B017C012AE037EDB2
:1049A00043E25CE30E94636F87FD14C02AE939E9A2
:1049B00049E95EE3C701B6010E948868181654F001
:1049C000C092E803D092E903E092EA03F092EB038D
:1049D0000C94781C0E94A3278DEA94E00E94812702
:1049E0000C94781C4AAD5BAD452B09F427C1A39606
:1049F0004CAC5DAC6EAC7FACA397480E591E6A1EE2
:104A00007B1EA3962CAD3DAD4EAD5FADA397281B8D
:104A1000390B4A0B5B0BC701B6010E94696CA301FD
:104A200092010E94C96CCEA4DFA4E8A8F9A8C20E26
:104A3000D31EE41EF51E54E1C516D104E104F104B1
:104A40000CF18CEEC816D104E104F1043CF490E8BA
:104A5000C916D104E104F1041CF105C04BEEC42ECB
:104A6000D12CE12CF12CCEA6DFA6E8AAF9AA2EEFD4
:104A700030E040E050E02C193D094E095F09690122
:104A80007A0112C084E190E0A0E0B0E08EA79FA779
:104A9000A8ABB9AB34E1C32ED12CE12CF12C04C06E
:104AA000CEA6DFA6E8AAF9AA80EC93E00E948127AF
:104AB0006EA57FA588A999A90E9441288BEB93E058
:104AC0000E948127C701B6010E9441284EAD5AA914
:104AD0006EA923967FAD239784EB93E00E94CD349B
:104AE00027964FAD27972B965FAD2B972F966FADDF
:104AF0002F9760967FAD60978DEA93E00E94CD344A
:104B0000AAADBBAD13970CF499C0C701B6010E94C2
:104B10008F6820E030E040E850E40E94EE684B01EE
:104B20005C012EAD3AA94EA923965FAD2397279637
:104B30006FAD27972B967FAD2B972F968FAD2F9725
:104B400060969FAD60970E94026D2BED3FE049E4B7
:104B500050E40E94EE6820E030E040E05FE30E9415
:104B6000EE689B01AC01C501B4010E94FD6D4B01D3
:104B70005C01C301B2010E948F682FE632E143E875
:104B80005AE30E94EE682B013C01B501A40187EABB
:104B900093E00E94CD34B301A20181EA93E00E9428
:104BA000CD342AE939E949E15FE3C501B4010E9446
:104BB000EE684B015C019B01AC01C301B2010E9494
:104BC000EE6820E030E040E05EE30E94EE686C9624
:104BD0006CAF7DAF8EAF9FAF6C97A5019401C501FF
:104BE000B4010E94036DA30192010E94FD6D6896BD
:104BF0006CAF7DAF8EAF9FAF68978FE793E00E9459
:104C00008127B501A4018BE993E00E94CD34689619
:104C10004CAD5DAD6EAD7FAD689785E993E00E94C8
:104C2000CD346C964CAD5DAD6EAD7FAD6C978FE8BD
:104C300093E00E94CD348AE00E947A278EA59FA53A
:104C4000A8A9B9A98C0D9D1DAE1DBF1DB595A79531
:104C50009795879580931C04EAADFBAD3196FBAF29
:104C6000EAAFFE8DFEAF2AA12AAB3EA13EAB4AA51C
:104C700023964FAF23974A8C5B8C6C8C7D8C51E0D4
:104C80006F965FAF6F970C94741A2FE432E081FF38
:104C900003C041E552E002C044E552E080FF03C09A
:104CA00083E592E002C084E592E03F932F935F9307
:104CB0004F939F938F9389E792E09F938F933F92B7
:104CC0002F920E9459680E94A727C1010E94D828EC
:104CD0000FB6F894DEBF0FBECDBF0C94781C24E550
:104CE00032E0D5CFB7FAB094B7F8B094D7018D922F
:104CF0009D92AD92BC9213970C94101C0E94A32716
:104D00008BE892E00E9481270C94781C0C5F1F4F67
:104D1000BFEFCB1ADB0AE8E7F7E0E017F10711F085
:104D20000C94E01B8CE5E82E82E0F82E10E0F101F7
:104D300081919191A191B1911F01F701819391937B
:104D4000A193B1937F01812F0E94262E1F5F133004
:104D500071F70E9401300C94781C692D7C2D8B2DED
:104D60009A2D0E94886887FFE8CA80E090E0A0E062
:104D7000B0E48E8B9F8BA88FB98F89839A83AB8386
:104D8000BC83E92CFC2C0B2D1A2DFFCACF58DF4F0A
:104D90000FB6F894DEBF0FBECDBFDF91CF911F914C
:104DA0000F91FF90EF90DF90CF90BF90AF909F90CA
:104DB0008F907F906F905F904F903F902F900895CD
:104DC000129A08955F9A809173028E7F8093730286
:104DD0008A9A809173028D7F80937302809108017B
:104DE0008095817080930601809173028B7F809300
:104DF00073020C94E0264F925F926F927F928F9293
:104E00009F92AF92BF92CF92DF92EF92FF920E9459
:104E1000125A90918F0B90938E0B90938D0B9093D1
:104E20008C0B94E690938B0B20ED33E030939A0833
:104E30002093990881110E941F5A81E08093F708FE
:104E40000E94825781E00E94805D4B015C0180E0FE
:104E50000E94805D2B013C016093C6027093C702E3
:104E60008093C8029093C9028092CA029092CB02AA
:104E7000A092CC02B092CD0282E00E94805D6B01D4
:104E80007C016093CE027093CF028093D002909306
:104E9000D10283E00E94805D40925D0B50925E0BD8
:104EA00060925F0B7092600B8092610B9092620B2C
:104EB000A092630BB092640BC092650BD092660B0C
:104EC000E092670BF092680B6093690B70936A0B2A
:104ED00080936B0B90936C0BFF90EF90DF90CF90D3
:104EE000BF90AF909F908F907F906F905F904F900A
:104EF0000C94BF2F9091C00095FFFCCF8093C6000B
:104F00000895CF93DF93FC018491EF0121968823CC
:104F100021F00E947A27FE01F7CFDF91CF9108950B
:104F20000F931F93CF93DF938B010E948127E8019A
:104F30008991882319F00E947A27FACFDF91CF91C7
:104F40001F910F91089583E599E00C9481278DE4DA
:104F500099E00C948127C42F0E94A8460E94A327A1
:104F60008DE299E00E94812789EE93E030E6019777
:104F700029F0232F2A950000E9F7F9CFF89489EE5C
:104F800093E038EE019729F0232F2A950000E9F7E6
:104F9000F9CF0E94A846CC2319F00E94E22602C055
:104FA0000E94E026A895FECF8F929F92AF92BF926B
:104FB000EF92FF920F931F93CF93DF93CDB7DEB79E
:104FC000A0970FB6F894DEBF0FBECDBF6115710577
:104FD0008105910591F100E0842E912CA12CB12C3A
:104FE000102FEE24E394F12CEC0EFD1EE00EF11CCC
:104FF00007FDFA94A50194010E94796CF701608382
:10500000B901CA010F5F611571058105910541F76D
:105010001F3F31F1E1E0F0E0EC0FFD1FE10FF11D6A
:1050200017FDFA9580818A3010F097E301C090E374
:10503000890F0E947A271150EBCF80E3A0960FB61C
:10504000F894DEBF0FBECDBFDF91CF911F910F91BE
:10505000FF90EF90BF90AF909F908F900C947A2725
:10506000A0960FB6F894DEBF0FBECDBFDF91CF91F3
:105070001F910F91FF90EF90BF90AF909F908F90F6
:105080000895CF92DF92EF92FF926B017C0197FF20
:105090000BC08DE20E947A27F094E094D094C094E3
:1050A000C11CD11CE11CF11C4AE0C701B601FF90F4
:1050B000EF90DF90CF900C94D4278F929F92AF9275
:1050C000BF92CF92DF92EF92FF92CF936B017C0160
:1050D000B42E20E030E0A9010E94886887FF07C055
:1050E0008DE20E947A27F7FAF094F7F8F094C0E086
:1050F00060E070E080E09FE3CB1541F02DEC3CECEC
:105100004CEC5DE30E94EE68CF5FF6CF9B01AC01F3
:10511000C701B6010E94036D6B017C010E94766E8F
:105120004B015C014AE00E94D427CC2389F1C501E0
:10513000B4010E948D689B01AC01C701B6010E94B9
:10514000026D6B017C018EE20E947A2720E030E044
:1051500040E251E4C701B6010E94EE684B015C01D8
:105160000E946F6E6B01770FEE08FF08C701B60152
:105170000E944128C701B6010E948F689B01AC01C3
:10518000C501B4010E94026D6B017C01C150F1F6B2
:10519000CF91FF90EF90DF90CF90BF90AF909F9016
:1051A0008F9008958DE00E947A278AE00C947A27E8
:1051B000CF93DF93EC018991882319F00E947A271D
:1051C000FACFDF91CF910C94D22880914103909136
:1051D0004203981759F0E92FF0E0EF5BFC4F828112
:1051E0009F5F9F779093420390E008958FEF9FEF2A
:1051F00008952F923F924F925F926F927F928F927B
:105200009F92AF92BF92CF92DF92EF92FF920F9355
:105210001F93CF93DF93CDB7DEB728970FB6F894DF
:10522000DEBF0FBECDBF80910C0B843008F058C19B
:1052300000E611E080910C0B843008F051C18091A0
:10524000410390914203891B8F7709F449C10E9461
:10525000E528AC0197FDEECF282F8A3019F08D306C
:1052600009F001C11092D7028091C3039091C40349
:10527000FC01E852FD4F1082892B49F01092C403C3
:105280001092C30328ED32E03F832E8303C00E94B7
:105290004D4AD0CFEE81FF818191803219F4FF8396
:1052A000EE83F8CF8E3409F072C04E815F814115D4
:1052B000510509F46CC067EE78E0CA010E943F68AE
:1052C0007C01892B49F06EE470E08E819F81049609
:1052D0000E941070009711F48E819F814AE050E087
:1052E00060E070E001960E94D1654B015C01809105
:1052F000840290918502A0918602B0918702019666
:10530000A11DB11D88169906AA06BB0631F0EF282B
:1053100021F460E084EB98E02BC06AE270E08E81BB
:105320009F810E9422709C01009729F1982F5E8135
:10533000951BF12C992341F09150EE81FF81E90FEB
:10534000F11D8081F826F6CF4AE050E060E070E081
:10535000C90101960E94D165CF2CD12CE12CF12CF2
:105360006C157D058E059F0551F060E085E998E09C
:105370000E945631B5C060E08BE698E0F9CF80928C
:10538000840290928502A0928602B0928702809158
:10539000B7028130C1F067E470E08E819F810E9486
:1053A0001070009781F04AE050E060E070E00196F4
:1053B0000E94D165643071058105910520F484EF68
:1053C00097E00E9481276FEE77E08E819F810E9497
:1053D0001E68892B11F410920F026AEE77E08E811D
:1053E0009F810E941E68892B31F441E060E070E0EB
:1053F00085E197E0ACC065EE77E08E819F810E94E9
:105400001E68892B11F40E94FB268091D8028B33F1
:1054100009F410CF80910C0B8A83843008F00ACFF6
:105420009091D6029983E92EF12C0E9DC0010F9D1B
:10543000900D112468ED72E08457964F0E941B7006
:10544000F701EC54F44F1083E981EF5FE983E43016
:1054500018F4E093D60202C01092D602FA81FF5FE0
:10546000F0930C0BE7CE9091D702913009F4E2CE85
:10547000943020F094509093D7020DC04C3531F405
:105480009C5F9093D7029430C9F4D4CE4B3319F477
:105490001093D702CFCE283089F48091C303909126
:1054A000C403009709F4C6CE01979093C403809378
:1054B000C303FC01E852FD4F1082BCCE2091C30310
:1054C0003091C403C90101969093C4038093C30330
:1054D000F901E852FD4F40838F359105CCF6AACEF5
:1054E0000E94045F6B017C0140916F025091700239
:1054F000609171027091720241155105610571054B
:1055000041F18091A3029091A402A091A502B091D3
:10551000A602840F951FA61FB71F97018601081BBF
:10552000190B2A0B3B0B37FD14C00E94A327609177
:105530005B0B70915C0B88EA97E00E9490278AE0F1
:105540000E947A2740E060E070E080E090E00E94F6
:10555000AB2780910A0290910B02A0910C02B091AE
:105560000D02892B8A2B8B2B09F44DC090918E0B49
:1055700080918F0B981749F0C092A302D092A40299
:10558000E092A502F092A6023EC00E94045F8090C5
:10559000A3029090A402A090A502B090A602009150
:1055A0000A0210910B0220910C0230910D02080D9D
:1055B000191D2A1D3B1DDC01CB01801B910BA20B89
:1055C000B30BB7FDC2C280913C0381111CC081E0C6
:1055D00080933C035F9A809173028E7F8093730265
:1055E0008A9A809173028D7F809373028091080163
:1055F0008095817080930601809173028B7F8093E8
:1056000073020E94E0268091380390913903A091A3
:105610003A03B0913B03A7019601281B390B4A0BB3
:105620005B0B57FDF9C190918E0B80918F0B9817F2
:1056300051F0E0918F0B37E4E39FF0011124E15921
:10564000FB4F208102C020910004222311F030E0A2
:1056500002C020E030E0EAE9F8E14491E4E5F8E155
:105660008491882399F090E0880F991FFC01E257FC
:10567000F84FA591B491FC01EF5CF74E85919491A0
:105680008FB7F894EC91E42BEC938FBF2115310583
:1056900011F480E004C02F3F310521F481E00E9425
:1056A0005A5FADC0E0EEF8E1E4918E2F90E0FC018E
:1056B0003197E231F10508F09DC08827EE58FF4F81
:1056C0008F4F0C94E86C84B5806884BD27BD97C06B
:1056D00084B5806284BD28BD92C0809180008068BE
:1056E00080938000309389002093880088C0809147
:1056F000800080628093800030938B0020938A002A
:105700007EC08091800088608093800030938D00FF
:1057100020938C0074C08091B00080688093B000AA
:105720002093B3006CC08091B00080628093B00081
:105730002093B40064C080919000806880939000B2
:1057400030939900209398005AC080919000806215
:105750008093900030939B0020939A0050C08091DA
:10576000900088608093900030939D0020939C006F
:1057700046C08091A00080688093A0008091A00026
:105780008F7B8093A0003093A9002093A80037C09E
:105790008091A00080628093A0003093AB002093A2
:1057A000AA002DC08091A00088608093A000309353
:1057B000AD002093AC0023C08091200180688093CD
:1057C0002001309329012093280119C080912001E4
:1057D00080628093200130932B0120932A010FC017
:1057E0008091200188608093200130932D012093C7
:1057F0002C0105C0203831050CF050CF4ACF8091E4
:105800008802882309F4FBC02090450230904602AC
:10581000009147020887109148021E8360911A0484
:1058200070911B046E5F7F4F072E000C880B990B45
:105830000E948F689101A8010E94886887FDDFC0DF
:1058400000918F0B09831A821B821C821D8280911A
:105850008E0B1981811709F460C0812F90E027E435
:10586000289FF001299FF00D1124E75DFB4F45892A
:1058700056896789708D452B462B472B81F4418DC6
:10588000528D638D748D452B462B472B41F4458DEE
:10589000568D678D70A1452B462B472BC9F137E4F8
:1058A000389F8001399F100D1124075D1B4FF801AF
:1058B00061817281838194810E94B16F4B015C018F
:1058C000F80161A172A183A194A10E948D682B01AE
:1058D0003C01F80165A176A187A190A50E948D6881
:1058E0009B01AC01C301B2010E94FD6DA5019401B1
:1058F0000E94EE685B018C012A813B814C815D81B5
:105900000E94636F181624F4AA82BB820C831D8345
:1059100089818F5F8F7089839ACF20913D0230916A
:105920003E0240913F02509140026A817B818C810E
:105930009D810E94EE68910148855E810E94036D01
:105940005B018C01609041027090420280904302A2
:10595000909044029B01AC01B10188859E810E9418
:10596000636F18167CF09301A401B501C8010E9471
:10597000636F181624F4130188869E8203C01501F4
:1059800008871E838090D2029090D302A090D40208
:10599000B090D502910148855E81C501B4010E9495
:1059A000636F1816D4F420E037ED43EA5CE3B101ED
:1059B00088859E810E94EE682B013C0128E431EE2F
:1059C0004AE75FE3C501B4010E94EE68A3019201BA
:1059D0000E94036D1B0188879E83C101A885BE813B
:1059E0008093D2029093D302A093D402B093D502B5
:1059F000B101CD010E946F6ECB010E946F45F4E6AC
:105A0000CF0ED11CE11CF11CC0923803D092390397
:105A1000E0923A03F0923B030E944D4A8091B70214
:105A2000882309F495C00E94045F6B017C0180917A
:105A30000E02882359F18091BC02882339F14091EC
:105A40003D0350913E0360913F03709140039701E5
:105A50008601041B150B260B370B37FD2AC083303C
:105A600079F03CF4813094F00E94A7278BE199E013
:105A70000BC0843059F40E94A7278CEE98E004C034
:105A80000E94A72784E099E00E94812720910E02BE
:105A900030E0A8EEB3E00E94A66CC60ED71EE81E4A
:105AA000F91EC0923D03D0923E03E0923F03F09274
:105AB000400380917802882309F44AC00E94045F61
:105AC0000091740210917502209176023091770254
:105AD000DC01CB01801B910BA20BB30BB7FD38C0CF
